:0400000007EF00F016
:0A0008006F820BED08F0D5EF0CF04D
:10100000003738392F3435362A3132332D23303DED
:051010002B2569000022
:101016000600FACF66F0FBCF67F0D9CF68F0DACFDB
:1010260069F0F3CF6AF0F4CF6BF0F2A81DEF08F089
:101036001FEF08F028EF08F0F2A224EF08F026EFE1
:1010460008F028EF08F003EC0DF0F0A62DEF08F0FD
:101056002FEF08F038EF08F0F0A034EF08F036EF85
:1010660008F038EF08F001EC0DF0F0A83DEF08F0BD
:101076003FEF08F048EF08F0F0A244EF08F046EF23
:1010860008F048EF08F0FFEC0CF0F2A64DEF08F080
:101096004FEF08F0F6EF08F0F2A054EF08F056EF25
:1010A60008F0F6EF08F081A85BEF08F05DEF08F0B6
:1010B6006AEF08F03504D8A463EF08F065EF08F08E
:1010C6006AEF08F0000E356E000EB1EC0BF081B839
:1010D6006FEF08F071EF08F07EEF08F03550D8A4F6
:1010E60077EF08F079EF08F07EEF08F0010E356E25
:1010F600010EB1EC0BF081AA83EF08F085EF08F042
:1011060092EF08F03404D8A48BEF08F08DEF08F0C6
:1011160092EF08F0000E346E000E72EC0BF081BAFE
:1011260097EF08F099EF08F0A6EF08F03450D8A42E
:101136009FEF08F0A1EF08F0A6EF08F0010E346E5D
:10114600010E72EC0BF081ACABEF08F0ADEF08F0DE
:10115600BAEF08F03304D8A4B3EF08F0B5EF08F0FF
:10116600BAEF08F0000E336E000E33EC0BF081BCC4
:10117600BFEF08F0C1EF08F0CEEF08F03350D8A467
:10118600C7EF08F0C9EF08F0CEEF08F0010E336E96
:10119600010E33EC0BF081AED3EF08F0D5EF08F07B
:1011A600E2EF08F03204D8A4DBEF08F0DDEF08F038
:1011B600E2EF08F0000E326E000EF4EC0AF081BE8B
:1011C600E7EF08F0E9EF08F0F6EF08F03250D8A4A0
:1011D600EFEF08F0F1EF08F0F6EF08F0010E326ECF
:1011E600010EF4EC0AF06BC0F4FF6AC0F3FF69C0AD
:1011F600DAFF68C0D9FF67C0FBFF66C0FAFF6F92CF
:101206001100010E6D6E6C50D8B40CEF09F00EEFA4
:1012160009F01FEF09F06C50D96EDA6ADF30E83258
:10122600E832070B0001806F070E80651DEF09F09D
:101236001FEF09F078EF09F0000E6D6E98EF09F0D8
:101246006C50D96EDA6ADF30E832E832070B806F0D
:10125600010E816F802B32EF09F0D8908137802FF5
:1012660030EF09F000018151FF0A826F6C50D96E90
:10127600DA6ADF50070B020DF350150FD96EDA6AE2
:10128600DECF83F0DDCF84F083C0D9FF84C0DAFFE0
:101296008251DF1698EF09F06C50D96EDA6ADF30AA
:1012A600E832E832070B806F010E816F802B5EEF0C
:1012B60009F0D8908137802F5CEF09F06C50D96E19
:1012C600DA6ADF50070B020DF350150FD96EDA6A92
:1012D600DECF82F0DDCF83F082C0D9FF83C0DAFF94
:1012E60000018151DF1298EF09F06C50D96EDA6A6D
:1012F600DFBC80EF09F083EF09F0010E84EF09F0FF
:10130600000E806F816B8151000AD8B48DEF09F011
:101316001FEF09F08051000AD8B423EF09F0010A43
:10132600D8B44FEF09F01FEF09F06D5012006E5060
:10133600D8A4A0EF09F0A2EF09F0A7EF09F0000E7C
:101346000001876F26EF0AF0F296F280F28EF28C99
:101356006E50050F6C6E04EC09F00001876F00EF0C
:101366000AF06E50D96EDA6ADECF4DF0DDCF4EF060
:101376006E50D96EDA6A020ED926DECF4BF0DDCF7B
:101386004CF025EF0AF06E50D96EDA6ADECF49F0DE
:10139600DDCF4AF06E50D96EDA6A020ED926DECF5C
:1013A60047F0DDCF48F025EF0AF06E50D96EDA6AC5
:1013B600DECF45F0DDCF46F06E50D96EDA6A020E0A
:1013C600D926DECF43F0DDCF44F025EF0AF06E508C
:1013D600D96EDA6ADECF41F0DDCF42F06E50D96EBB
:1013E600DA6A020ED926DECF3FF0DDCF40F025EFD8
:1013F6000AF0000E876F25EF0AF06E50D96EDA6A92
:10140600050ED926DF30E832E832070B856F866B8A
:101416008651000AD8B412EF0AF0FCEF09F08551A4
:10142600040AD8B4B4EF09F0010AD8B4C6EF09F03B
:10143600030AD8B4D8EF09F0010AD8B4EAEF09F0E4
:10144600FCEF09F0F28687511200010E6E6E6C50A9
:10145600D8B430EF0AF032EF0AF043EF0AF06C50DE
:10146600D96EDA6ADF30E832E832070B0001806FA6
:10147600070E806541EF0AF043EF0AF09CEF0AF091
:10148600000E6E6EB1EF0AF06C50D96EDA6ADF307C
:10149600E832E832070B806F010E816F802B56EF22
:1014A6000AF0D8908137802F54EF0AF06C50D96E2D
:1014B600DA6ADF50070B020DF3500B0FD96EDA6AAA
:1014C600DECF82F0DDCF83F082C0D9FF83C0DAFFA2
:1014D60000018151DF12B1EF0AF06C50D96EDA6A61
:1014E600DF30E832E832070B806F010E816F802B08
:1014F6007FEF0AF0D8908137802F7DEF0AF0000148
:101506008151FF0A826F6C50D96EDA6ADF50070B81
:10151600020DF3500B0FD96EDA6ADECF83F0DDCF02
:1015260084F083C0D9FF84C0DAFF8251DF16B1EFA1
:101536000AF06D50806F816B8151000AD8B4A6EF16
:101546000AF043EF0AF08051000AD8B470EF0AF0AF
:10155600010AD8B447EF0AF043EF0AF06E501200C2
:101566005C50D8B4B9EF0AF0BBEF0AF0CBEF0AF043
:101576005C50D96EDA6ADF30E832E832070B5D6E0E
:10158600070E5D64C9EF0AF0CBEF0AF0CDEF0AF063
:10159600F3EF0AF05C50D96EDA6ADF30E832E832EF
:1015A600070B5D6E010E5E6E5D2ADCEF0AF0D890C9
:1015B6005E365D2EDAEF0AF05C50D96EDA6ADF50DD
:1015C600070B020DF3500B0FD96EDA6ADECF5FF010
:1015D600DDCF60F05FC0D9FF60C0DAFF5E50DF1A72
:1015E6001200656EF2806550D8A4FCEF0AF0FEEF9B
:1015F6000AF015EF0BF041504210D8B405EF0BF08E
:1016060007EF0BF032EF0BF002D813EF0BF00500EB
:10161600FA6E4150FD6E4250FE6EFF6AFA5012009D
:1016260032EF0BF06504D8A41BEF0BF01DEF0BF0A7
:1016360032EF0BF03F504010D8B424EF0BF026EFFA
:101646000BF032EF0BF002D832EF0BF00500FA6E1A
:101656003F50FD6E4050FE6EFF6AFA5012001200B7
:10166600656EF2806550D8A43BEF0BF03DEF0BF0B2
:1016760054EF0BF045504610D8B444EF0BF046EF4C
:101686000BF071EF0BF002D852EF0BF00500FA6E7B
:101696004550FD6E4650FE6EFF6AFA50120071EF1D
:1016A6000BF06504D8A45AEF0BF05CEF0BF071EF6A
:1016B6000BF043504410D8B463EF0BF065EF0BF01A
:1016C60071EF0BF002D871EF0BF00500FA6E435084
:1016D600FD6E4450FE6EFF6AFA5012001200656EEF
:1016E600F2806550D8A47AEF0BF07CEF0BF093EF05
:1016F6000BF049504A10D8B483EF0BF085EF0BF08E
:10170600B0EF0BF002D891EF0BF00500FA6E4950DE
:10171600FD6E4A50FE6EFF6AFA501200B0EF0BF0F3
:101726006504D8A499EF0BF09BEF0BF0B0EF0BF02C
:1017360047504810D8B4A2EF0BF0A4EF0BF0B0EF6F
:101746000BF002D8B0EF0BF00500FA6E4750FD6EB5
:101756004850FE6EFF6AFA5012001200656EF28063
:101766006550D8A4B9EF0BF0BBEF0BF0D2EF0BF03E
:101776004D504E10D8B4C2EF0BF0C4EF0BF0EFEFA4
:101786000BF002D8D0EF0BF00500FA6E4D50FD6E4F
:101796004E50FE6EFF6AFA501200EFEF0BF0650432
:1017A600D8A4D8EF0BF0DAEF0BF0EFEF0BF04B50BD
:1017B6004C10D8B4E1EF0BF0E3EF0BF0EFEF0BF0CA
:1017C60002D8EFEF0BF00500FA6E4B50FD6E4C5051
:1017D600FE6EFF6AFA5012001200010E00018A6FB7
:1017E6008851D8A4F9EF0BF0FBEF0BF0FFEF0BF0ED
:1017F600000E8A6F2AEF0CF05BC08BF08851D96E11
:10180600DA6ADF50070B896F8B518919F80B891932
:101816008B6F8851D96EDA6ADF30E832E832070B0F
:10182600896F8947894789478B518919C70B891958
:101836008B6F8B9D8851D96EDA6ADFAC02D08B8FA5
:1018460002D000018B9F8B0E856F67EC0CF00001B8
:101856008A511200010E636E6150D8A435EF0CF068
:1018660037EF0CF03BEF0CF0000E636E65EF0CF0FB
:1018760058C064F06150D96EDA6ADF50070B626EA9
:1018860064506218F80B6218646E6150D96EDA6A99
:10189600DF30E832E832070B626E62466246624625
:1018A60064506218C70B6218646E649C6150D96EEE
:1018B600DA6ADFAC02D0648E01D0649E640E5C6E80
:1018C600B3EC0AF063501200010E0001876F8551D8
:1018D600D8B470EF0CF072EF0CF082EF0CF085517B
:1018E600D96EDA6ADF30E832E832070B866F070E08
:1018F600866580EF0CF082EF0CF086EF0CF0000EA0
:10190600876F96EF0CF085C06CF004EC09F085C08B
:101916006CF000018551D96EDA6A000EDFBE010E49
:101926006D6E28EC0AF0000187511200800F810FBE
:10193600820F830F840F890F8A0F8B0F8C0F8D0FE9
:10194600920F930F940F950F960F020A121A626A5E
:10195600727A0B03131B232B7300011A0101010179
:1019660001EC19E0190161124A023E0E0001886F6E
:10197600F0EC0BF0316E3D0E0001886FF0EC0BF0D1
:10198600316E3C0E0001886FF0EC0BF0316E360EB6
:101996006E6E9AEC09F0316EFCEC0CF0D1EF0CF0A7
:1019A60007EF00F0320EF66E190EF76E000EF86EA7
:1019B60000EE01F010EE3EF00900F5CFEEFFE55027
:1019C600E150FAE100EE3FF01D0EEE6AE806FDE199
:1019D6006F906F920001B8EF0CF03D0E616E2DEC2A
:1019E6000CF0316E12003E0E616E2DEC0CF0316E75
:1019F600120005EC0DF01200F0921200F0901200A9
:061A0600F2921200120032
:020000040030CA
:0E000000FF02091EFF8181FF0FC00FE00F40BD
:00000001FF
